{
  "contractName": "Bidding",
  "abi": [
    {
      "constant": true,
      "inputs": [],
      "name": "TopBid",
      "outputs": [
        {
          "name": "user",
          "type": "address"
        },
        {
          "name": "bidAmount",
          "type": "uint256"
        }
      ],
      "payable": false,
      "stateMutability": "view",
      "type": "function"
    },
    {
      "constant": true,
      "inputs": [],
      "name": "ace",
      "outputs": [
        {
          "name": "",
          "type": "address"
        }
      ],
      "payable": false,
      "stateMutability": "view",
      "type": "function"
    },
    {
      "inputs": [
        {
          "name": "_aceAddress",
          "type": "address"
        }
      ],
      "payable": false,
      "stateMutability": "nonpayable",
      "type": "constructor"
    },
    {
      "constant": false,
      "inputs": [
        {
          "name": "_bidPrice",
          "type": "uint256"
        }
      ],
      "name": "submitBid",
      "outputs": [],
      "payable": false,
      "stateMutability": "nonpayable",
      "type": "function"
    },
    {
      "constant": false,
      "inputs": [
        {
          "name": "_proof",
          "type": "uint24"
        },
        {
          "name": "sender",
          "type": "address"
        },
        {
          "name": "data",
          "type": "bytes"
        }
      ],
      "name": "submitProof",
      "outputs": [
        {
          "name": "result",
          "type": "string"
        }
      ],
      "payable": false,
      "stateMutability": "nonpayable",
      "type": "function"
    },
    {
      "constant": true,
      "inputs": [],
      "name": "getTopBid",
      "outputs": [
        {
          "name": "",
          "type": "address"
        },
        {
          "name": "",
          "type": "uint256"
        }
      ],
      "payable": false,
      "stateMutability": "view",
      "type": "function"
    },
    {
      "constant": false,
      "inputs": [
        {
          "name": "sender",
          "type": "address"
        },
        {
          "name": "bidValue",
          "type": "uint256"
        }
      ],
      "name": "setTopBid",
      "outputs": [],
      "payable": false,
      "stateMutability": "nonpayable",
      "type": "function"
    }
  ],
  "bytecode": "0x608060405234801561001057600080fd5b506040516020806105c48339810180604052602081101561003057600080fd5b505160008054600160a060020a03909216600160a060020a0319909216919091179055610562806100626000396000f3fe608060405234801561001057600080fd5b50600436106100725760003560e01c806374bdda151161005057806374bdda151461022c578063a5c8fa8414610249578063e14ae9e01461027a57610072565b806312499abe14610077578063509fcd65146100b257806368aaf501146100ea575b600080fd5b6100b06004803603604081101561008d57600080fd5b5073ffffffffffffffffffffffffffffffffffffffff8135169060200135610282565b005b6100ba6102d5565b6040805173ffffffffffffffffffffffffffffffffffffffff909316835260208301919091528051918290030190f35b6101b76004803603606081101561010057600080fd5b62ffffff8235169173ffffffffffffffffffffffffffffffffffffffff6020820135169181019060608101604082013564010000000081111561014257600080fd5b82018360208201111561015457600080fd5b8035906020019184600183028401116401000000008311171561017657600080fd5b91908080601f0160208091040260200160405190810160405280939291908181526020018383808284376000920191909152509295506102f7945050505050565b6040805160208082528351818301528351919283929083019185019080838360005b838110156101f15781810151838201526020016101d9565b50505050905090810190601f16801561021e5780820380516001836020036101000a031916815260200191505b509250505060405180910390f35b6100b06004803603602081101561024257600080fd5b50356104b0565b6102516104f9565b6040805173ffffffffffffffffffffffffffffffffffffffff9092168252519081900360200190f35b6100ba610515565b6040805180820190915273ffffffffffffffffffffffffffffffffffffffff90921680835260209092018190526001805473ffffffffffffffffffffffffffffffffffffffff1916909217909155600255565b60015460025473ffffffffffffffffffffffffffffffffffffffff9091169082565b600080546040517fa2866ea300000000000000000000000000000000000000000000000000000000815262ffffff86166004820190815273ffffffffffffffffffffffffffffffffffffffff868116602484015260606044840181815287516064860152875191968796939093169463a2866ea3948b948b948b949293608401916020860191908190849084905b8381101561039d578181015183820152602001610385565b50505050905090810190601f1680156103ca5780820380516001836020036101000a031916815260200191505b50945050505050600060405180830381600087803b1580156103eb57600080fd5b505af11580156103ff573d6000803e3d6000fd5b505050506040513d6000823e601f3d908101601f19168201604052602081101561042857600080fd5b81019080805164010000000081111561044057600080fd5b8201602081018481111561045357600080fd5b815164010000000081118282018710171561046d57600080fd5b505060408051808201909152600381527f77696e000000000000000000000000000000000000000000000000000000000060208201529998505050505050505050565b60025481116104be57600080fd5b604080518082019091523380825260209091018290526001805473ffffffffffffffffffffffffffffffffffffffff19169091179055600255565b60005473ffffffffffffffffffffffffffffffffffffffff1681565b60015460025473ffffffffffffffffffffffffffffffffffffffff9091169156fea165627a7a72305820c591c5fb435a929d7fe397ba29443d4ab5f1487c1579213c22ec542c051c87840029",
  "source": "pragma solidity >=0.5.0 <0.6.0;\n\nimport \"@aztec/protocol/contracts/ACE/ACE.sol\";\n\n\ncontract Bidding\n{\n    ACE public ace;\n\n    constructor(address _aceAddress) public {\n        ace = ACE(_aceAddress);  //Aztec Cryptography Engine\n    }\n\n    // Bids will have a user and an amount\n    struct Bid {\n        address user;\n        uint bidAmount;\n    }\n\n    // Keeps track of the top bid\n    Bid public TopBid;\n\n\n    // UI will connect here to submit bid price\n    function submitBid(uint _bidPrice) public {\n\n        //Non-private checking of new bid\n        require(_bidPrice > TopBid.bidAmount);\n\n        //If new bid is higher, save old and replace\n        //address old_user =  TopBid.user;\n        TopBid = Bid(msg.sender, _bidPrice);\n    }\n\n    // UI will connect here to submit bid price\n    function submitProof(uint24 _proof, address sender, bytes memory data) public returns (string memory result){\n        bytes memory proofOutputs =  ace.validateProof(_proof, sender, data);\n        result = 'win';\n        return result;\n    }\n\n    //Function to return top bid\n    function getTopBid() public view returns (address, uint) {\n        return (TopBid.user, TopBid.bidAmount);\n    }\n\n    function setTopBid(address sender, uint bidValue) public {\n        TopBid = Bid(sender, bidValue);\n    }\n}",
  "sourcePath": "/Users/personal/crypto/ethBoston_private_auction/contracts/Bidding.sol",
  "compiler": {
    "name": "solc",
    "version": "0.5.4+commit.9549d8ff.Emscripten.clang"
  },
  "schemaVersion": "3.0.15",
  "updatedAt": "2019-09-08T05:27:41.663Z",
  "devdoc": {
    "methods": {}
  },
  "userdoc": {
    "methods": {}
  }
}